:020000040000FA
:10000000D8050010650200006D0200006F020000BC
:100010007102000073020000750200000000000081
:100020000000000000000000000000007702000057
:1000300079020000000000007B0200007D02000049
:100040007F0200004B3C0000973C0000B53C0000E4
:10005000F53C000015060000153B00003D4C00007B
:10006000095700007F0200007F0200007F020000AD
:100070007F0200007F0200007F0200007F0200007C
:100080007F0200007F0200007F0200007F0200006C
:100090007F0200007F0200007F0200007F0200005C
:1000A0007F0200007F0200007F0200007F0200004C
:1000B0007F0200007F0200007F0200007F0200003C
:1000C0007F0200007F0200007F02000000F002F8C3
:1000D00000F0B8F80AA090E8000C82448344AAF12A
:1000E0000107DA4501D100F0ADF8AFF2090EBAE828
:1000F0000F0013F0010F18BFFB1A43F0010318475C
:10010000989B0000B89B00000A444FF0000C10F8C8
:10011000013B13F0070408BF10F8014B1D1108BF85
:1001200010F8015B641E05D010F8016B641E01F825
:10013000016BF9D113F0080F1EBF10F8014BAD1C75
:100140000C1B09D16D1E58BF01F801CBFAD505E093
:1001500014F8016B01F8016B6D1EF9D59142D6D3ED
:10016000704700000023002400250026103A28BF15
:1001700078C1FBD8520728BF30C148BF0B60704719
:100180006E2906F05C80702906F0B181662909F0BD
:100190002B84652909F02884672909F025846129C1
:1001A000AFF3008003681B0A28BF41F08001692972
:1001B00005F03884642905F03584752905F032840A
:1001C0006F2906F03F81782906F07D81E92906F044
:1001D000D980E42906F0D680F52906F0D380EF29EE
:1001E00006F03C81F82906F07C810368DB0928BF12
:1001F00041F08001632906F03684732906F03B84C0
:10020000E32906F04684F32906F04B84002070476A
:100210001FB59DE8030007F0C7F905F0CFFE040005
:100220000020002108F034FD401C60600020002107
:1002300008F044FDE06006F0F7FD1FBD10B506F0C4
:100240005CFE10BD06F0DFFE1146FFF7E1FF00F097
:1002500057F807F07DF903B4FFF7F0FF03BC07F090
:1002600015FB00000948804709480047FEE7FEE704
:10027000FEE7FEE7FEE7FEE7FEE7FEE7FEE7FEE756
:1002800004480549034A054B70470000A758000081
:10029000CD000000D8030010D8050010D8030010CE
:1002A00010B505F08BFE001D10BD00BFE5890000F4
:1002B00010B54C1084EA530404D54042C1F100014A
:1002C00038BF491E1B4204D55242C3F1000338BF58
:1002D0005B1E05F077FE14F0804F04D04042C1F160
:1002E000000138BF491E14F0004F04D05242C3F140
:1002F000000338BF5B1E10BD70470000FFFFFFFF0B
:1003000005F0D1FA642003F097FA03F08BFB02F0BA
:10031000A6FD04F0DAFC04F0E4FE05F0DDF84FF48D
:10032000964000F027F84FF4964004F039FB03F0B4
:100330002CF801F0D0F801F0D4F909A000F070F821
:100340000DE009480078012807D10020064908700F
:1003500006490860064800F0D0F902F0B7FBF0E764
:100360006F6B0D0A000000000C0000100800001068
:100370006401001010B50146C748006840F0500005
:10038000C54B18608320C54B1873C54800688009A9
:10039000B0FBF1F2100A18711A70032018730720CD
:1003A0001872012058600520012383404409A400ED
:1003B00004F1E024C4F8003100BF10BD0A2810D1B8
:1003C00000BFB649097D01F020010029F9D0B349E9
:1003D000087000BFB149097D01F020010029F9D062
:1003E00008E0AE49087000BFAC49097D01F020016A
:1003F0000029F9D07047A949087000BFA749097DB5
:1004000001F020010029F9D0704700B5024603E051
:1004100012F8010BFFF7D2FF10780028F8D100BDC9
:100420000FB400B58FB011A80E9001A80E9A1099C4
:1004300005F0DAFA01A8FFF7E8FF00200E900FB0F0
:100440005DF814FB2DE9F04186B0044695A207CA79
:1004500003AB07C300250926954A02232046002145
:10046000FFF726FF17461946924A00233846FFF742
:100470001FFFC0B28DF800008E48B4FBF0F100FB06
:1004800011408D49B0FBF1F0C0B28DF80100084673
:10049000B4FBF0F100FB11408849B0FBF1F0C0B2B1
:1004A0008DF802000846B4FBF0F100FB11408449CE
:1004B000B0FBF1F0C0B28DF803000846B4FBF0F1D8
:1004C00000FB11407F49B0FBF1F0C0B28DF8040091
:1004D0000846B4FBF0F100FB114042F21071B0FB92
:1004E000F1F0C0B28DF805000846B4FBF0F100FB56
:1004F00011404FF47A71B0FBF1F0C0B28DF80600F4
:100500000846B4FBF0F100FB11406421B0FBF1F0B0
:10051000C0B28DF807006420B4FBF0F100FB11407D
:100520000A21B0FBF1F08DF808000A20B4FBF0F1CD
:1005300000FB11408DF8090000BF07E01DF8050021
:1005400010B12E460A2503E0681CC5B20A2DF5DB62
:1005500000BF354607E01DF8051003AA505CFFF701
:100560004AFF681CC5B20A2DF5DB06B0BDE8F08174
:100570002DE9F34F85B00C46059809F0CBF90546F7
:10058000FFF760FF50A0FFF74BFF204608F036FE54
:1005900002460B46CDE9000100204C4907F066FEFB
:1005A00005460E46059809F089F92A463346CDE9F5
:1005B000020108F073FE074608F096FB05904FF025
:1005C000000922E0059809F0A5F98346A4EB09018A
:1005D000481E08F0FCFD07463A460B4600203B4902
:1005E00007F044FE054608F0C5FDBBFBF0F00A210C
:1005F000B0FBF1F201FB120A0AF13001C8B2FFF7B9
:10060000FAFE09F1010000F0FF09A145DADB07B0AD
:10061000BDE8F08F20B500BF20488068C3B25B10F2
:1006200003F00703022B36D11C480278082A11D1A7
:100630002748006878B30820FFF7C0FE2020FFF7A6
:10064000BDFE0820FFF7BAFE21480068401E204981
:10065000086020E00D2A0ED100201E491C4D2D6897
:1006600048550D20FFF7AAFE0A20FFF7A7FE01203C
:10067000194908700FE00A2A0DD0154800683F2874
:1006800006D213490868411C114D296011490A54CA
:100690001046FFF793FE20BD00C0024000C000409E
:1006A00054010010303132333435363738390000D8
:1006B00000E40B5400CA9A3B00E1F50580969800CF
:1006C00040420F00A08601002E00000000002440E0
:1006D00008000010640100100C00001009E001780F
:1006E000612905DB01787A2902DC01782039017063
:1006F000401C01780029F2D1704770B504460025EE
:100700002046FFF7EBFF2146FDA005F013FC20B9C2
:10071000012002F070F8002070BD2146FBA005F01A
:1007200009FC18B902F054FF0020F5E72146FBA0B0
:1007300005F000FC18B902F065FF0020ECE7214647
:10074000F9A005F0F7FB18B900F04AFE0020E3E736
:100750002146F9A005F0EEFB18B901F079F9002067
:10076000DAE72146F6A005F0E5FB18B900F0AEFF88
:100770000020D1E72146F4A005F0DCFB18B901F018
:100780006EF90020C8E72146F1A005F0D3FB18B9A7
:1007900000F07BFF0020BFE72146EFA005F0CAFB79
:1007A00018B900F0D2FE0020B6E72146ECA005F013
:1007B000C1FB18B901F05AF90020ADE72146EAA0C3
:1007C00005F0B8FB18B901F058F90020A4E721465C
:1007D000E7A005F0AFFB18B900F0B0FE00209BE7E2
:1007E0002146E5A005F0A6FB18B900F01FFF002088
:1007F00092E72146E2A005F09DFB18B901F044F90B
:10080000002089E72146E0A005F094FB18B901F02B
:1008100042F9002080E72146DDA005F08BFB18B9E6
:1008200000F0FDFE002077E72146DBA005F082FB0B
:1008300018B900F0BDFE00206EE72146D8A005F0F3
:1008400079FB18B901F02EF9002065E72146D6A002
:1008500005F070FB18B901F02CF900205CE7214687
:10086000D3A005F067FB18B900F09BFE002053E70A
:100870002146D1A005F05EFB18B900F011FF002061
:100880004AE72146CEA005F055FB18B901F018F94A
:10089000002041E72146CCA005F04CFB18B901F03F
:1008A00016F9002038E72146C9A005F043FB18B926
:1008B00000F02DFE00202FE72146C7A005F03AFBEF
:1008C00030B901220221104604F056FE002023E731
:1008D0002146C3A005F02EFB30B9002202210120E1
:1008E00004F04AFE002017E72146BFA005F022FBD6
:1008F00030B901220321104604F03EFE00200BE730
:100900002146BBA005F016FB30B9002203210120CF
:1009100004F032FE0020FFE62146B7A005F00AFBF6
:1009200030B901220421104604F026FE0020F3E62F
:100930002146B3A005F0FEFA30B9002204210120BF
:1009400004F01AFE0020E7E62146AFA005F0F2FA17
:1009500030B901220521104604F00EFE0020DBE62E
:100960002146ABA005F0E6FA30B9002205210120AE
:1009700004F002FE0020CFE62146A7A005F0DAFA37
:1009800030B901220621104604F0F6FD0020C3E62E
:100990002146A3A005F0CEFA30B90022062101209D
:1009A00004F0EAFD0020B7E621469FA005F0C2FA58
:1009B00030B901220721104604F0DEFD0020ABE62D
:1009C00021469BA005F0B6FA30B90022072101208C
:1009D00004F0D2FD00209FE6214697A005F0AAFA78
:1009E00048B901F0C8F896A0FFF70FFD96A0FFF7F1
:1009F0000CFD002090E6214695A005F09BFA48B931
:100A000000F06BFE8EA0FFF700FD8FA0FFF7FDFC4E
:100A1000002081E6214690A005F08CFA48B901F04B
:100A2000AEF887A0FFF7F1FC87A0FFF7EEFC0020EF
:100A300072E621468AA005F07DFA48B900F02CFE46
:100A40007FA0FFF7E2FC80A0FFF7DFFC002063E659
:100A5000214685A005F06EFA30B901F094F87AA02D
:100A6000FFF7D3FC002057E6214681A005F062FA8B
:100A700030B900F071FD74A0FFF7C7FC00204BE611
:100A800021467DA005F056FA30B900F0D6FD6EA0E3
:100A9000FFF7BBFC00203FE621467AA005F04AFAAA
:100AA00030B901F09EF868A0FFF7AFFC002033E6F4
:100AB000214677A005F03EFA30B900F080FD62A033
:100AC000FFF7A3FC002027E6214674A005F032FAC8
:100AD00030B901F0AEF85CA0FFF797FC00201BE6F0
:100AE000214671A005F026FA48B900F0E0FD54A0B7
:100AF000FFF78BFC54A0FFF788FC00200CE6DBE03E
:100B00005445535445524944000000004545505255
:100B10004F4D205752495445000000004545505262
:100B20004F4D20524541440053454E534F525F4371
:100B30004845434B000000004359314F4E00000030
:100B40004359314F464600004359324F4E00000092
:100B50004359324F464600004359334F4E00000080
:100B60004359334F464600004359344F4E0000006E
:100B70004359344F464600004359354F4E0000005C
:100B80004359354F464600004359364F4E0000004A
:100B90004359364F464600004359374F4E00000038
:100BA0004359374F464600004359384F4E00000026
:100BB0004359384F464600004359394F4E00000014
:100BC0004359394F46460000435931304F4E0000DB
:100BD000435931304F464600435931314F4E0000A2
:100BE000435931314F464600435931324F4E000090
:100BF000435931324F464600435931334F4E00007E
:100C0000435931334F464600435931344F4E00006B
:100C1000435931344F464600435931354F4E000059
:100C2000435931354F464600435931364F4E000047
:100C3000435931364F4646005641434F4E0000005F
:100C40004F4B0D0A00000000405F400D0A000000FD
:100C50005641434F464600004C45444F4E0000006D
:100C60004C45444F46460000505553484F4E0000F7
:100C7000505553484F464600484F4C4445525550F6
:100C800000000000484F4C444552444F574E00006E
:100C9000484F4C4445524F4E00000000484F4C44D2
:100CA00045524F464600000043414D455241504F8A
:100CB0005745524F4E0000002146FEA005F03AF97C
:100CC00058B900F0DEFFAFF28800FFF79EFBAFF2ED
:100CD0008800FFF79AFB00201EE52146F9A005F0E9
:100CE00029F958B900F0EEFCAFF2AC00FFF78DFB2C
:100CF000AFF2AC00FFF789FB00200DE52146F5A01F
:100D000005F018F958B900F0CDFFAFF2CC00FFF7AD
:100D10007CFBAFF2CC00FFF778FB0020FCE421461F
:100D2000F0A005F007F960B90120F2490870AFF2B0
:100D3000F000FFF76AFBAFF2F000FFF766FB002060
:100D4000EAE42146ECA005F0F5F860B90020E94995
:100D50000870AFF21410FFF758FBAFF21410FFF752
:100D600054FB0020D8E42146E6A005F0E3F858B98A
:100D700000F08BFFAFF23810FFF747FBAFF23810EF
:100D8000FFF743FB0020C7E42146E0A005F0D2F8BE
:100D900058B900F0C3FBAFF25810FFF736FBAFF2C3
:100DA0005810FFF732FB0020B6E42146D9A005F029
:100DB000C1F858B901F00EFFAFF27C10FFF725FB28
:100DC000AFF27C10FFF721FB0020A5E42146D3A061
:100DD00005F0B0F840B9012000F090FFAFF2981094
:100DE000FFF713FB002097E42146CEA005F0A2F800
:100DF00058B901F04BFBAFF2B810FFF706FBAFF2AA
:100E0000B810FFF702FB002086E42146C7A005F0DA
:100E100091F858B901F044F8AFF2DC10FFF7F5FA99
:100E2000AFF2DC10FFF7F1FA002075E4204601F084
:100E300030FF48B9AFF2F810FFF7E7FAAFF2F81059
:100E4000FFF7E3FA002067E42146BAA005F072F844
:100E500058B901F08DFFAFF21820FFF7D6FAAFF2C4
:100E60001820FFF7D2FA002056E403222146B3A04F
:100E700004F0BBFF80B9204601F004FE0546284679
:100E800001F089FFAFF24820FFF7BFFAAFF2482028
:100E9000FFF7BBFA00203FE42146A9A005F04AF87D
:100EA00088B9AB480068AB4908600846006802F0A2
:100EB000CEFBAFF27420FFF7A8FAAFF27420FFF771
:100EC000A4FA002028E42146A3A005F033F890B945
:100ED00002F02EFA9F49086008460168A2A0FFF7B9
:100EE0009FFAAFF2A420FFF790FAAFF2A420FFF729
:100EF0008CFA002010E421469FA005F01BF868B989
:100F00009348006802F0CAFBAFF2CC20FFF77DFAED
:100F1000AFF2CC20FFF779FA002006E421469AA030
:100F200005F008F890B902F0EAF99B490860084614
:100F300001689AA0FFF774FAAFF2FC20FFF765FA98
:100F4000AFF2FC20FFF761FA002009E407222146F6
:100F500096A004F04AFF80B9204601F093FD0546B3
:100F6000284601F012FFAFF22830FFF74EFAAFF239
:100F70002830FFF74AFA002004E421468DA004F04F
:100F8000D9FF58B902F01FFCAFF24C30FFF73DFA21
:100F9000AFF24C30FFF739FA002005E4214687A074
:100FA00004F0C8FF58B900F081FEAFF26C30FFF7D3
:100FB0002CFAAFF26C30FFF728FA002006E4214645
:100FC00082A004F0B7FF58B900F082FEAFF2903073
:100FD000FFF71BFAAFF29030FFF717FA002007E493
:100FE00021467EA004F0A6FFB8B9012003F06AFAFA
:100FF00000207C49487002E0012003F0DBFB7948C7
:1010000040780028F8D0AFF2C830FFF7FEF9AFF211
:10101000C830FFF7FAF9002005E4214672A004F079
:1010200089FF60B9012002F09BFFAFF2EC30FFF7BF
:10103000ECF9AFF2EC30FFF7E8F9002005E42146C7
:101040006BA004F077FF60B9012002F099FFAFF2C6
:101050001040FFF7DAF9AFF21040FFF7D6F90020A1
:1010600005E4214664A004F065FF88B9012003F07F
:10107000D0F80646314664A0FFF7D2F9AFF24040FF
:10108000FFF7C3F9AFF24040FFF7BFF9002009E4D2
:10109000214661A004F04EFF50B901206349087059
:1010A00003F060FA002061490870AFF26C40BFE0C5
:1010B000C6E0000043414D455241504F5745524F05
:1010C00046460000424C4F575F4D4952524F524FD7
:1010D0004E000000424C4F575F4D4952524F524F05
:1010E00046460000494F4E5F414C4C5F4F50454EC5
:1010F000000000000E000010494F4E5F4E4F524D51
:10110000414C0000494F4E4F4E000000494F4E4F9A
:1011100046460000474F5F484F4D450052455345F6
:1011200054000000465756455200000048454C50B8
:10113000000000004745545A5300000055505F001E
:10114000534156452054455354204C430000000061
:1011500018000010380000105245414420544553F7
:1011600054204C43000000005A5F546573745F4C78
:10117000433D25640D0A0000534156452052454128
:101180004459204C430000005245414420524541FF
:101190004459204C430000003C0000105A5F526547
:1011A0006164795F4C433D25640D0A005345544DFD
:1011B00049505F004745544D495000004D4F56453A
:1011C0002054455354204C43000000004D4F5645D9
:1011D000205245414459204C43000000484F4D45A2
:1011E00000000000DA000010534552564F4E000038
:1011F000534552564F4646005245414420455252AF
:1012000020434F44450000004572726F72436F6483
:10121000653D25580D0A0000524541445F484F4D39
:10122000455F535441545553000000001C0000100A
:10123000FFF7EBF8AFF2F050FFF7E7F8002006E415
:10124000214641A004F076FE60B9012002F02EFF95
:10125000AFF21460FFF7D9F8AFF21460FFF7D5F8DA
:1012600000200CE421463BA004F064FE48B90120B4
:1012700002F07EFF064631463BA0FFF7D1F8002082
:1012800009E421463DA004F055FEC0B90F2101201C
:1012900003F048F900203C49487002E0012003F0C7
:1012A00089FA394840780028F8D0AFF26C60FFF72F
:1012B000ACF8AFF26C60FFF7A8F800200FE421460D
:1012C00032A004F037FE58B901F07DFDAFF2906016
:1012D000FFF79BF8AFF29060FFF797F800200DE45E
:1012E000204601F0DEF848B9AFF2AC60FFF78DF8A8
:1012F000AFF2AC60FFF789F80020EDE4204601F082
:101300009EFA20B924A0FFF78BF80020E4E42146E0
:1013100023A004F00FFE50B9234803782348027835
:101320002348016823A0FFF77BF80020D4E426A01F
:10133000FFF776F8AFF2F860FFF767F8AFF2F86002
:10134000FFF763F80120C7E4434C45415220415266
:101350004D000000524541442043555252454E54E1
:1013600020504F494E54000043555252454E542090
:10137000504F494E543D25640D0A000052455345D7
:1013800054204D4F544F5200D20000104D4F544F37
:1013900052205445535400006F6B0D0A00000000AA
:1013A000524541445F485700490000104800001072
:1013B0004400001048575F323025645F5625642E84
:1013C00025640D0A00000000636F6D6D616E64207E
:1013D0006E6F7420666F756E64210D0A0000000048
:1013E00010B5D048406BC0F3002018B9CEA0FFF76D
:1013F00017F802E0D2A0FFF713F8CA48406BC0F319
:10140000402018B9D4A0FFF70BF802E0D8A0FFF7EE
:1014100007F8C4484069C0F3401018B9DAA0FEF7D5
:10142000FFFF02E0DDA0FEF7FBFFBE484069C0F30E
:10143000801018B9DEA0FEF7F3FF02E0E1A0FEF78E
:10144000EFFFB8484069C0F3002018B9E2A0FEF7EA
:10145000E7FF02E0E5A0FEF7E3FFB248406BC0F310
:10146000405018B9E6A0FEF7DBFF02E0E9A0FEF766
:10147000D7FFAC48406BC0F3807018B9EAA0FEF704
:10148000CFFF02E0EDA0FEF7CBFFA648406BC0F314
:10149000C04018B9EEA0FEF7C3FF02E0F1A0FEF7CE
:1014A000BFFFA048406BC0F3005018B9F2A0FEF790
:1014B000B7FF02E0F6A0FEF7B3FF9A48406B0121A8
:1014C00001EAD07018B9F8A0FEF7AAFF02E0FDA06B
:1014D000FEF7A6FF10BD10B54FF47A6002F004FAD3
:1014E000012002F0AFFFFE49087008460178FDA018
:1014F000FEF796FF012002F0E5FFF9490870084663
:101500000178FCA0FEF78CFF03F02CF810BD10B59D
:1015100000220121084604F02FF810BD10B5F9484B
:10152000007850B97F48406940F400007D49486127
:10153000052002F08AF9FFF7EAFF10BD10B500227E
:101540000321104604F018F810BD10B50122022145
:10155000002004F011F810BD10B50024FFF7F5FFCE
:10156000012002F072F9FFF7E9FF012002F06DF9A6
:1015700014E06C48406BC0F3002030B9E24884426C
:1015800003D2E2A0FEF741FF09E02046641CDE49D9
:10159000884203D9E1A0FEF738FF00E0E9E700BF89
:1015A00010BD10B500220721104603F0E5FF10BD65
:1015B00010B501220621002003F0DEFF10BD10B59A
:1015C000DA480078012826D10024FFF7F1FF012036
:1015D00002F03BF9FFF7E5FF012002F036F90120A8
:1015E000D349087014E04F48406BC0F3005030B945
:1015F000C548844203D2CFA0FEF707FF09E020468A
:10160000641CC149884203D9CDA0FEF7FEFE00E06C
:10161000E9E700BF02E0CEA0FEF7F7FE10BD10B56F
:1016200000220521104603F0A7FF10BD10B50122CE
:101630000421002003F0A0FF10BD10B50024FFF727
:10164000F5FF012002F001F9FFF7E9FF012002F0A8
:10165000FCF80120B549087014E03248406BC0F333
:10166000405030B9A848844203D2BFA0FEF7CDFE57
:1016700009E02046641CA449884203D9BDA0FEF7B6
:10168000C4FE00E0E9E700BF10BD10B50022012153
:10169000104603F071FF10BD10B5FFF7F6FF10BD47
:1016A00010B500221146012003F066FF10BD10B5F1
:1016B000FFF7F6FF10BD10B500220221012003F054
:1016C0005BFF10BD10B5FFF7F6FF10BD10B500228F
:1016D0001146104603F050FF10BD10B5FFF7F6FF9E
:1016E00010BD10B50F21012002F01CFF02E0012007
:1016F00003F060F8A34840780028F8D0FFF7EDFF2A
:10170000052002F0A2F8FFF7DDFF0A2002F09DF8A5
:10171000FFF7CDFF0A2002F098F8FFF7BDFF642025
:1017200032E1000000C0092053454E534F525F5034
:101730005553485F66726F6E743D3D300D0A000070
:1017400053454E534F525F505553485F66726F6E0C
:10175000743D3D310D0A000053454E534F525F50CA
:101760005553485F626F74746F6D3D3D300D0A00D4
:1017700053454E534F525F505553485F626F7474D8
:101780006F6D3D3D310D0A0053746172745F627577
:1017900074746F6E5F613D3D300D0A005374617269
:1017A000745F627574746F6E5F613D3D310D0A0048
:1017B00053746172745F627574746F6E5F623D3DE5
:1017C000300D0A0053746172745F627574746F6EC9
:1017D0005F623D3D310D0A0053746F705F62757436
:1017E000746F6E3D3D300D0A0000000053746F7041
:1017F0005F627574746F6E3D3D310D0A000000002C
:1018000053454E534F525F5A5F55703D3D300D0A60
:101810000000000053454E534F525F5A5F55703DD4
:101820003D310D0A0000000053454E534F525F5AA0
:101830005F446F776E3D3D300D0A000053454E53B7
:101840004F525F5A5F446F776E3D3D310D0A000085
:1018500053454E534F525F595F66726F6E743D3DF4
:10186000300D0A0053454E534F525F595F66726FF9
:101870006E743D3D310D0A0053454E534F525F5932
:101880005F626F74746F6D3D3D300D0A00000000A3
:1018900053454E534F525F595F626F74746F6D3D85
:1018A0003D310D0A00000000464C45585F4E65670B
:1018B00061746976655F50726573737572653D3DDD
:1018C000300D0A00464C45585F4E65676174697675
:1018D000655F50726573737572653D3D310D0A0029
:1018E00016000010696E69313D2530327848200DB0
:1018F0000A0000006F7267313D2530327848200DB4
:101900000A0000000E000010809698005075736861
:101910004F4646204F4B0D0A00000000507573687B
:101920004F4646204641494C0D0A00001500001064
:1019300014000010486F6C644F4E204F4B0D0A008E
:10194000486F6C644F4E204641494C0D0A00000020
:10195000486F6C6465722050555348204572726F11
:1019600072210D0A00000000486F6C645550204F32
:101970004B0D0A00486F6C645550204641494C0D90
:101980000A000000D200001001F05FFFFFF755FED3
:10199000642001F05AFFFFF712FE642001F055FFAA
:1019A000FFF7DAFDFFF7BAFD0020FA490870FA499F
:1019B0000870FA48FEF729FDF9A0FEF731FD10BDC9
:1019C00010B5FC480078B8B90120FA490870FA4807
:1019D0000168012002F0A6FD02E0012002F0EAFE0B
:1019E000F64840780028F8D0AFF2D800FEF70DFD99
:1019F000F3A0FEF70AFD06E0AFF2E800FEF705FDF2
:101A0000EFA0FEF702FD10BD10B5EA4800780128EE
:101A100016D10020E74908700F21012002F082FD55
:101A200002E0012002F0C6FEE74840780028F8D026
:101A3000AFF22010FEF7E9FCE1A0FEF7E6FC06E0BD
:101A4000AFF23010FEF7E1FCDDA0FEF7DEFC10BDCA
:101A500010B501220021084603F08EFD10BD10B51F
:101A600001221146002003F087FD10BD10B50022B1
:101A70000221104603F080FD10BD10B501220321A4
:101A8000002003F079FD10BD10B50022042110469E
:101A900003F072FD10BD10B501220521002003F0F6
:101AA0006BFD10BD10B500220621104603F064FD49
:101AB00010BD10B501220721002003F05DFD10BD0F
:101AC00010B501220021104603F056FD10BD10B5DF
:101AD00001221146104603F04FFD10BD10B5012242
:101AE0000221104603F048FD10BD10B5012203216C
:101AF000104603F041FD10BD10B500220321012066
:101B000003F03AFD10BD10B501220421104603F088
:101B100033FD10BD10B500220421012003F02CFD7F
:101B200010BD10B501220521104603F025FD10BDA2
:101B300010B500220521012003F01EFD10BD10B5D7
:101B400001220621104603F017FD10BD10B500223A
:101B50000621012003F010FD10BD10B50122072160
:101B6000104603F009FD10BD10B500220721012029
:101B700003F002FD10BD10B5FFF76AFF10BD10B5F0
:101B8000FFF76DFF10BD10B590480078012823D1F4
:101B90000024FFF76BFF012001F057FEFFF76DFFF8
:101BA000012001F052FE14E08948406BC0F3402050
:101BB00030B98848844203D287A0FEF726FC09E0AA
:101BC0002046641C8349884203D986A0FEF71DFC89
:101BD00000E0E9E700BF03E0AFF28C20FEF715FC60
:101BE00010BD10B50024FFF74FFF012001F02DFEBE
:101BF000FFF751FF012001F028FE00207349087013
:101C000014E07348406BC0F3807030B9714884426F
:101C100003D278A0FEF7F9FB09E02046641C6D4969
:101C2000884203D977A0FEF7F0FB00E0E9E700BFA8
:101C300010BD10B50024FFF735FF012001F005FEAF
:101C4000FFF737FF012001F000FE00207149087006
:101C500014E05F48406BC0F3C04030B95D48844237
:101C600003D26DA0FEF7D1FB09E02046641C594960
:101C7000884203D96CA0FEF7C8FB00E0E9E700BF8B
:101C800010BD10B5FFF71CFF10BD10B550484069DE
:101C900020F400004E494861052001F0D6FDFFF711
:101CA00016FF10BD10B5FFF719FF10BD10B5424863
:101CB0000168012002F036FC00204049487002E033
:101CC000012002F077FD3D4840780028F8D010BD93
:101CD00010B559480168012002F024FC56480068FC
:101CE0005649086000205649487002E0012002F081
:101CF00061FD534840780028F8D010BD38B505463E
:101D00000024FFF7C9FC0A2001F09FFDFFF7DAFC71
:101D1000FFF7DEFF642001F098FDFFF78EFC6420E2
:101D200001F093FDFFF74BFC322001F08EFDFFF731
:101D3000D4FCC82001F089FDFFF7B8FF642001F052
:101D400084FDFFF7A2FFFFF774FF642001F07DFD23
:101D5000FFF702FC642001F078FD00200D490870B7
:101D60009BE01B48406BC0F3405090B91848406B53
:101D7000C0F3C04068B91648406BC0F3002040B9BA
:101D800013484069C0F3002018B12E48844263D242
:101D90005AE061E0100000100E000010509C00009E
:101DA00073797374656D20696E6974206F6B0D0AA9
:101DB000000000003400001038000010D8000010AF
:101DC000405F400D0A000000D20000101500001016
:101DD00000C0092080969800507573684F4E204FC0
:101DE0004B0D0A00507573684F4E204641494C0D0B
:101DF0000A000000486F6C64446F776E204F4B0DF3
:101E00000A000000486F6C64446F776E20464149B9
:101E10004C0D0A0014000010486F6C644F464620B9
:101E20004F4B0D0A00000000486F6C644F4646207F
:101E30004641494C0D0A00003C00001018000010FB
:101E4000D6000010002D31013BA0FEF7DEFAAFF204
:101E50009000FEF7DAFA21E02046641C39498842F6
:101E60001BD939A0FEF7D1FA3B484069C0F30020E6
:101E700000903948406BC0F300233748406BC0F3F3
:101E8000C0423548406BC0F3405134A003F0BEFD62
:101E9000AFF2D400FEF7B9FA00E062E700BF38BD48
:101EA00010B527A0FEF7B1FA36A0FEF7AEFA3FA0B4
:101EB000FEF7ABFA46A0FEF7A8FA51A0FEF7A5FA86
:101EC0005BA0FEF7A2FA66A0FEF79FFA70A0FEF7ED
:101ED0009CFA7BA0FEF799FA85A0FEF796FA8FA0F0
:101EE000FEF793FA98A0FEF790FAA0A0FEF78DFAFD
:101EF000A5A0FEF78AFAACA0FEF787FAB1A0FEF71C
:101F000084FAB8A0FEF781FAC0A0FEF77EFAC9A055
:101F1000FEF77BFAD1A0FEF778FADAA0FEF775FAA1
:101F2000E2A0FEF772FAECA0FEF76FFAF4A0FEF75B
:101F30006CFAFEA00EE200005265736574204F4BF0
:101F40000D0A0000002D3101526573657420464171
:101F5000494C0D0A0000000000C009205A5F55508E
:101F60003A25640D0A595F463A25640D0A505553C7
:101F7000485F463A25640D0A53544F505F423A2554
:101F800064000000474F20484F4D4520202020206E
:101F9000202009090944555420474F2054455354E3
:101FA000204C4F434154494F4E0D0A005245534572
:101FB00054204D4F544F5220202020202020094DE6
:101FC0004F544F522052455345540D0A0000000013
:101FD000534156452054455354204C432020202043
:101FE0002020202053415645204D4F544F5220541D
:101FF000455354204C4F434154494F4E0D0A000065
:1020000053415645205245414459204C43202020FD
:102010002020202053415645204D4F544F522052EE
:1020200045414459204C4F434154494F4E0D0A00FD
:10203000524541442054455354204C4320202020F5
:1020400009202053415645204D4F544F52205445AE
:102050005354204C4F434154494F4E0D0A00000049
:1020600052454144205245414459204C43202020B0
:102070002020202053415645204D4F544F5220528E
:1020800045414459204C4F434154494F4E0D0A009D
:102090004D4F56452054455354204C43202020207A
:1020A000202020204D4F544F52204D4F5645205454
:1020B000455354204C4F434154494F4E0D0A0000A4
:1020C0004D4F5645205245414459204C4320202035
:1020D000202020204D4F544F52204D4F5645205226
:1020E00045414459204C4F434154494F4E0D0A003D
:1020F00055505F4E2020202020202020202020200E
:10210000202020204D4F544F52204D4F5645204EF9
:102110002F313030204D4D0D0A0000005245414412
:102120002045525220434F4445202020202020208B
:1021300052454144204D4F544F52204552524F5228
:1021400020434F44450D0A00434C45415220415223
:102150004D202020202020200909434C45415220B9
:102160004D4F544F522041524D0D0A005641434F9E
:102170004E202020202020202020202020202056FB
:102180004143204F4E0D0A005641434F4646202002
:102190002020202020202020202020564143204F96
:1021A00046460D0A000000004C45444F4E202020BA
:1021B00020202020202020202020204C4544204F7B
:1021C0004E0D0A004C45444F46462020202020203A
:1021D000202020202020204C4544204F46460D0A38
:1021E0000000000043414D455241504F5745524F6A
:1021F0004E20202020202043414D45524120504F69
:10220000574552204F4E0D0A0000000043414D45F6
:102210005241504F5745524F4646202020202043E0
:10222000414D45524120504F574552204F46460D93
:102230000A000000505553484F4E202020202020F7
:1022400020202020202020474154452043594C493C
:102250004E44455220494E0D0A0000005055534847
:102260004F464620202020202020202020202047CC
:102270004154452043594C494E444552204F5554F2
:102280000D0A0000484F4C44455255502020202054
:1022900020202020202020484F4C444552204359E4
:1022A0004C494E4445522055500D0A00484F4C446D
:1022B0004552444F574E20202020202020202048E7
:1022C0004F4C4445522043594C494E4445522044BA
:1022D000574F4E0D0A000000484F4C4445524F4E98
:1022E0002020202020202020200920484F4C444539
:1022F000522043594C494E44455220494E0D0A0044
:10230000484F4C4445524F46462020202020202054
:10231000202020484F4C4445522043594C494E44BC
:102320004552204F55540D0A0000000053454E53AE
:102330004F525F434845434B20202020202020500F
:1023400052494E5420414C4C2053454E534F520D50
:102350000A000000FEF759F8ACA0FEF756F8B4A04A
:10236000FEF753F8BAA0FEF750F8C2A0FEF74DF8FA
:10237000C9A0FEF74AF8D1A0FEF747F8D7A0FEF7AC
:1023800044F8DEA0FEF741F8E6A0FEF73EF8EFA025
:10239000FEF73BF8F7A0FEF738F810BD2DE9F04F37
:1023A00089B004464FF0000B207846286AD1607847
:1023B000572867D1A0783D2864D1E078302861D1D2
:1023C000207958285ED1204603F0F0FC00F0FF0A87
:1023D0004FF005093AE014F8090030282EDB14F814
:1023E000090039282ADCAAEB0901481E06F0EFFE95
:1023F00007463A460B460020E84905F037FF0546F8
:102400000E4614F80910A1F1300006F0E0FE2A464D
:102410003346CDE9000106F041FFCDE904015846FD
:1024200006F0ECFECDE90201DDE9042306F08EFCA6
:10243000CDE9060106F09EFE834603E0012009B0C7
:10244000BDE8F08F09F1010000F0FF09B9F1090FB3
:10245000C1DBD348C0F800B00068000ED149087352
:10246000CF480068000C4873CD480088000A887384
:10247000CB480078C87304220C314FF20C0001F0F5
:102480003DF801E00120DAE70020D8E710B5C6A04A
:10249000FDF7BBFFC7A0FDF7B8FFCFA0FDF7B5FF65
:1024A00010BD10B592B00446302106A803F01AFD05
:1024B0001821684603F016FD207849287ED16078FF
:1024C0004428FBD1A0783D28F8D1204603F06EFCCB
:1024D0000928F3D1E078302808DBE078392805DCDA
:1024E000E07830380690069800010690E0784128A0
:1024F00008DBE078462805DCE07837380690069857
:10250000000106902079302805DB2079392802DC8B
:102510002079303807902079412805DB207946283A
:1025200002DC207937380790DDE906010844009085
:102530000098C1B2FA2000F0BFFF6079302808DBB4
:102540006079392805DC60793038089008980001F6
:1025500008906079412808DB6079462805DC6079BD
:1025600037380890089800010890A079302805DBDA
:10257000A079392802DCA07930380990A079412867
:1025800005DBA079462802DCA07937380990DDE91F
:102590000801084401900198C1B2FB2000F08CFFB3
:1025A000E079302808DBE079392805DCE07930383B
:1025B0000A900A9800010A90E07900E016E14128AB
:1025C00008DBE079462805DCE07937380A900A987C
:1025D00000010A90207A302805DB207A392802DCB5
:1025E000207A30380B90207A412805DB207A462863
:1025F00002DC207A37380B90DDE90A0108440290AA
:102600000298C1B2FC2000F057FFF2E04657564551
:102610005220202020202020202020202020204662
:10262000572056455253494F4E204E554D0D0A00E6
:1026300049445F4E202020202020202020202020E0
:10264000202020464958545552452049440D0A003F
:102650005A535F4E202020202020202020202020A0
:102660002020204D4F544F522053504545440D0AD1
:1026700000000000524553455420202020202020F7
:1026800020202020202020524553455420464958E0
:10269000545552450D0A000048454C50202020203A
:1026A00020202020202020202020204C495354206E
:1026B000434F4D4D414E440D0A000000494F4E4FCF
:1026C0004E202020202020202020202020202049B3
:1026D0004F4E204F50454E0D0A000000494F4E4FBF
:1026E0004646202020202020202020202020204975
:1026F0004F4E20434C4F53450D0A0000494F4E5F4B
:10270000414C4C5F4F50454E202020202020204936
:102710004F4E20414C57415953204F50454E0D0AC2
:1027200000000000494F4E5F4E4F524D414C20205B
:1027300020202020202020494F4E204E4F524D4136
:102740004C20574F524B0D0A00000000424C4F578F
:102750005F4D4952524F524F4E2020202020204D95
:102760004952524F5220424C4F57204F50454E0D28
:102770000A000000424C4F575F4D4952524F524F92
:10278000464620202020204D4952524F5220424C94
:102790004F57204F46460D0A00000000000024401D
:1027A00054000010A40100103058303130350D0AAB
:1027B00000000000666F7220323031392F372F3120
:1027C0003520416E647920536F6E672052657669BB
:1027D00073650D0A00000000416464205661637552
:1027E000756D20436865636B0D0A0000012012B00F
:1027F00010BD0020FBE73EB505460024FA2408E0A2
:10280000204600F027FDA4F1FA010DF80100601C3C
:1028100084B2FC2CF4DDFEA0FDF7F7FD002406E0F9
:102820001DF80410FBA0FDF7FBFD601C84B2032C17
:10283000F6DB012D02D1F9A0FDF7F2FD3EBD2DE939
:10284000F04788B004464FF0000A207848287DD130
:1028500060785728FBD1A0783D287DD1E07A5F28A9
:102860007AD1207B562877D1A07B2E2874D14FF0C7
:10287000050939E014F8090030282DDB14F80900A7
:10288000392829DCC9F10A0006F0A1FC02460B46F2
:10289000CDE900010020E34905F0E8FCCDE90201A3
:1028A00014F80910A1F1300006F091FC0746DDE9AB
:1028B000022306F0F3FC05460E46504606F09EFC49
:1028C0002A463346CDE9040106F040FACDE9060177
:1028D00006F050FC824603E0012008B0BDE8F08716
:1028E00009F1010000F0FF09B9F10B0FC2DBCE487E
:1028F000C0F800A00068000ECC490870CA48006803
:10290000000C4870C8480088000A8870C6480078E3
:10291000C87004224FF4704000F0F0FD607B303846
:10292000C2490871E07B3038487108460079C049D7
:102930000870BE484079BF490870BC4801794FF221
:10294000040000F0B9FDB948417900E004E04FF21D
:10295000050000F0B1FD01E00120BEE70020BCE76A
:102960002DE9F04788B004464FF0000A2078462849
:102970007ED160785728FBD1A0783D287ED1E07ABF
:102980005F287BD1207B562878D1A07B2E2875D15B
:102990004FF0050939E014F8090030282DDB14F850
:1029A0000900392829DCC9F10A0006F010FC0246AA
:1029B0000B46CDE9000100209A4905F057FCCDE90E
:1029C000020114F80910A1F1300006F000FC0746DE
:1029D000DDE9022306F062FC05460E46504606F08D
:1029E0000DFC2A463346CDE9040106F0AFF9CDE9E6
:1029F000060106F0BFFB824603E0012008B0BDE8F7
:102A0000F08709F1010000F0FF09B9F10B0FC2DBFB
:102A10008948C0F800A00068000E84498871864883
:102A20000068000CC87184480088000A0872824857
:102A3000007848720422891D4FF2060000F05EFD06
:102A4000607B303879498872E07B3038C87208463C
:102A5000807A7A4908707548C07A79490870734855
:102A6000817A4FF20A0000F027FD7048C17A00E039
:102A700004E04FF20B0000F01FFD01E00120BDE774
:102A80000020BBE730B58FB00546002400200B9036
:102A90000FE0FDF705FC0068295D405C202803D1AC
:102AA000285D01A9085502E0202001A90855601CF5
:102AB000C4B2285D0028ECD101A908550BAA61A178
:102AC00001A803F0AFF80B980FB030BD10B55E4809
:102AD0004069C0F3401028B15B484069C0F38010E2
:102AE000002869D1322000F0B0FE57484069C0F399
:102AF000401028B154484069C0F3801000285BD1D1
:102B000052480078002857D1322000F09EFEFFF78F
:102B10003AF8642000F099FEFEF751FD642000F0C1
:102B200094FEFEF7FBFC642000F08FFEFFF727F811
:102B3000642000F08AFEFFF71EF84FF47A7000F070
:102B400084FEFFF7C5F8C82000F07FFEFFF771F89C
:102B5000642000F07AFEFFF744F8642000F075FE70
:102B6000FFF7A4F8642000F070FEFFF79BF8012047
:102B7000364908703448406BC0F34020B8B9324839
:102B8000406BC0F3C04090B92F48406BC0F38070D9
:102B900068B92D48406B012101EAD07018B92CA00A
:102BA000FDF733FC08E02CA0FDF73AFC04E02DA073
:102BB000FDF736FCFEF714FC00BF23484069C0F364
:102BC00040100028F9D020484069C0F38010002848
:102BD000F3D010BD10B5FFF758F8642000F035FEB3
:102BE000FEF7D1FF642000F030FEFEF7E8FC642021
:102BF00000F02BFEFEF7C3FF642000F026FEFEF778
:102C0000BAFF642000F021FEFFF762F834E0000014
:102C100030580000252E3258000000000D0A4F4B9E
:102C20000D0A00000000244044000010A401001020
:102C300048000010490000104C0000105000001027
:102C4000510000102575000000C009201000001080
:102C500053746172740D0A005641435F4552524FDE
:102C6000520D0A0053656E736F72537461747573FD
:102C70004572720D0A000000FEF7DBFF642000F0D1
:102C8000E4FDFEF7AEFFC82000F0DFFDFFF70EF811
:102C900010BD2DE9F04F89B004464FF0000B2078AD
:102CA0005A2861D1607853285ED1A0785F285BD123
:102CB000A079002858D1204603F078F8062853D18F
:102CC000204603F073F800F0FF0A4FF003093AE0E2
:102CD00014F8090030282EDB14F8090039282ADC02
:102CE000AAEB0901481E06F072FA07463A460B465F
:102CF0000020444905F0BAFA05460E4614F80910BA
:102D0000A1F1300006F063FA2A463346CDE900010E
:102D100006F0C4FACDE90401584606F06FFACDE991
:102D20000201DDE9042306F011F8CDE9060106F001
:102D300021FA834603E0012009B0BDE8F08F09F1D4
:102D4000010000F0FF09D145C2DBBBF1640F0DD8D3
:102D50002D48C0F800B0006800F0C7FC2A480168A0
:102D6000012001F0C6FB01E00120E5E70020E3E7D8
:102D700010B500F0ADFA244908600846016823A0A8
:102D8000FDF74EFB2048006810BD10B504462046F4
:102D900000F027FD10BD10B5044601201E49087043
:102DA0001E4804602146012001F0BCFB02E0012026
:102DB00001F000FD1A4840780028F8D0214619A0FB
:102DC000FDF72EFB10BD10B5002416E042F21F7176
:102DD000012001F0A7FB4FF4FA6000F036FD0F214F
:102DE000012001F09FFB4FF4FA6000F02EFD601C03
:102DF00084B221460EA0FDF713FBB4F57A7FE5DB24
:102E000010BD000000002440200000104765745AE7
:102E1000533D25640D0A00000D000010180000103D
:102E2000D6000010535445503D25640D0A000000A3
:102E300074696D65733D25640D0A00000A2000BFAA
:102E4000411E081EFCD17047FE48006820F000605B
:102E5000FC49086008464069C0F3C060704700B58F
:102E6000F848006840F0C050F6490860084600681D
:102E700040F0805008600846406940F0805048614A
:102E8000642000BF011EA0F10100FBD1FFF7D6FFB7
:102E9000EC48006840F00060EA4908600846406974
:102EA00040F000604861642000BF011EA0F10100F5
:102EB000FBD1FFF7C3FF00BD00B5E248006840F05A
:102EC0000060E04908600846406940F000604861E1
:102ED000642000BF011EA0F10100FBD1FFF7AEFF8F
:102EE000D848006840F08050D649086008464069DC
:102EF00040F080504861642000BF011EA0F1010035
:102F0000FBD1FFF79BFFCF48006840F00060CD4940
:102F100008600846406920F000604861642000BFF6
:102F2000011EA0F10100FBD1FFF788FFC548006832
:102F300040F08050C34908600846406920F0805046
:102F40004861642000BF011EA0F10100FBD1FFF722
:102F500075FF00BD10B50246082300BF02F08000D7
:102F600088B1B848006840F00060B649086008467B
:102F7000406940F000604861642000BF011EA0F17C
:102F80000100FBD111E0AF48006840F00060AD499E
:102F900008600846406920F000604861642000BF76
:102FA000011EA0F10100FBD100BF5006020EA54892
:102FB000006840F08050A34908600846406940F02E
:102FC00080504861642000BF011EA0F10100FBD1C8
:102FD000FFF734FF9B48006840F080509949086033
:102FE0000846406920F080504861642000BF011EFF
:102FF000A0F10100FBD1FFF721FF581EC0B2031E54
:10300000ACD110BD00B58F48006840F000608D491C
:1030100008600846406940F000604861642000BFD5
:10302000011EA0F10100FBD1FFF708FF85480068F1
:1030300040F08050834908600846406940F0805065
:103040004861642000BF011EA0F10100FBD1FFF721
:10305000F5FEFFF7F9FE02467A48006840F080501E
:10306000784908600846406920F080504861642033
:1030700000BF011EA0F10100FBD1FFF7DFFE1046EB
:1030800000BD00B56F48006840F000606D49086001
:103090000846406920F000604861642000BF011EBE
:1030A000A0F10100FBD1FFF7C9FE6648006840F0BF
:1030B0008050644908600846406940F0805048618B
:1030C000642000BF011EA0F10100FBD1FFF7B6FE96
:1030D0005C48006840F000605A4908600846406952
:1030E00040F000604861642000BF011EA0F10100B3
:1030F000FBD1FFF7A3FE0F2200BF501E021EFCD122
:1031000000BD10B504462046FFF724FFFFF77AFF05
:1031100018B1FFF7B6FF012010BD0020FCE700B595
:1031200002468AB14748006840F00060454908609F
:103130000846406940F000604861642000BF011EFD
:10314000A0F10100FBD111E03E48006840F00060B2
:103150003C4908600846406920F0006048616420EE
:1031600000BF011EA0F10100FBD100BFFFF766FE0A
:103170003448006840F08050324908600846406991
:1031800040F080504861642000BF011EA0F10100A2
:10319000FBD1FFF753FE2B48006840F080502949CF
:1031A00008600846406920F080504861642000BFF4
:1031B000011EA0F10100FBD1FFF740FE00BD10B5DC
:1031C00008232048006840F000601E490860084657
:1031D000406940F000604861642000BF011EA0F11A
:1031E0000100FBD100BF1748006840F0805015492E
:1031F00008600846406940F080504861642000BF84
:10320000011EA0F10100FBD1FFF718FE5006020ECF
:10321000FFF71AFE08B1501CC2B20A48006840F01D
:103220008050084908600846406920F08050486195
:10323000642000BF011EA0F10100FBD1FFF7FEFDDD
:10324000581E01E000C00920C0B2031ECBD11046B9
:1032500010BD000070B50446FFF72EFEA020FFF75A
:1032600050FF2546E11704EB1161C1F30720FFF77A
:1032700048FFE11704EB11610912A4EB0121C8B268
:10328000FFF73FFFFFF718FEA120FFF73AFFFFF718
:1032900096FF06460120FFF742FFFFF7F2FE304699
:1032A00070BD10B500241720FFF7D4FF0446182086
:1032B000FFF7D0FF44EA00241920FFF7CBFF44EAD0
:1032C00000441A20FFF7C6FF44EA0064204610BD00
:1032D00010B500240F20FFF7BDFF04460E20FFF7B6
:1032E000B9FF44EA00240D20FFF7B4FF44EA00448C
:1032F0000C20FFF7AFFF44EA0064204610BD10B574
:1033000000240820FFF7A6FF04460920FFF7A2FFCC
:1033100044EA00240A20FFF79DFF44EA00440B2002
:10332000FFF798FF44EA0064FE480460204610BDA1
:1033300010B500240420FFF78DFF04460520FFF799
:1033400089FF44EA00240620FFF784FF44EA004492
:103350000720FFF77FFF44EA0064F348046020463B
:1033600010BD2DE9F04106460C461746002500BF6A
:1033700007E0711988B2FFF76DFF04F8010B681CB4
:10338000C5B2BD42F5DBBDE8F08110B500243222A4
:10339000E6494FF47040FFF7E4FFE44800784FF04F
:1033A0007F4101EA0060E14949784FF47F0202EA77
:1033B00001410843DD498978121202EA01210843DC
:1033C000DA49C9780843DA490860D8480079D94908
:1033D0000870D6484079D8490870D44880791104DB
:1033E00001EA0060D149C979120202EA01410843A9
:1033F000CE49097A121202EA01210843CB49497ADF
:103400000843CE490860C948807ACD490870C7484A
:10341000C07ACC490870C548007B110401EA0060FD
:10342000C249497B120202EA01410843BF49897B34
:10343000121202EA01210843BC49C97B0843C24970
:1034400008604FF2100408E0A0B2FFF703FF014646
:10345000A4F57040B54A1154641C4FF21500844223
:10346000F2D9FFF765FFB0490860FFF748FFAD49A3
:103470000860FFF72DFFB5490860FFF712FFB44958
:103480000860A9480168B3A0FCF7CAFFA548016815
:10349000B4A0FCF7C5FFAD480168B6A0FCF7C0FFBB
:1034A000AB480168B8A0FCF7BBFF10BD00BF011E10
:1034B000A0F10100FBD1704770B504460E46FFF73E
:1034C000FBFCA020FFF71DFE2546E11704EB116170
:1034D000C1F30720FFF715FEE11704EB1161091294
:1034E000A4EB0121C8B2FFF70CFE3046FFF709FE3E
:1034F000FFF7C7FDAA48FFF7D9FF70BD2DE9F041DE
:1035000004460D461746FFF7D7FCA020FFF7F9FD4C
:103510002646E11704EB1161C1F30720FFF7F1FD27
:10352000E11704EB11610912A4EB0121C8B2FFF706
:10353000E8FD03E015F8010BFFF7E3FD381EA7F1E6
:103540000101CFB2F6D1FFF79CFD9548FFF7AEFF22
:10355000BDE8F08130B599B0002400BF04E04D20F3
:103560000DF80400601CC4B2642CF8DB002406E0F3
:10357000202269460020FFF7C1FF601CC4B21F2C47
:10358000F6DD202406E0042208A92020FFF7B6FF7C
:10359000601CC4B2232CF6DD002406E02046FFF7B1
:1035A00059FE0DF80400601CC4B2642CF6DB002444
:1035B0000AE02046FFF74EFE05462A46214679A03E
:1035C000FCF72EFF601CC4B2642CF2DB19B030BDD6
:1035D00010B58AB0002400BF03E001A80455601CA8
:1035E000C4B2232CF9DB202201A90020FFF786FFBB
:1035F000042209A92020FFF781FF6DA0FCF710FF2E
:103600000AB010BD10B58AB0002400BF04E000204D
:1036100001A90855601CC4B2232CF8DB002406E085
:103620002046FFF717FE01A90855601CC4B2232CE1
:10363000F6DB002407E001A8025D214659A0FCF753
:10364000EFFE601CC4B2232CF5DB0AB010BD38B508
:1036500004460020009034480460E0B28DF8000079
:10366000200A8DF80100200C8DF80200200E8DF844
:1036700003009DF800100420FFF71EFF9DF80110C5
:103680000520FFF719FF9DF802100620FFF714FF31
:103690009DF803100720FFF70FFF38BD38B504462B
:1036A000002000901F480460E0B28DF80000200A5E
:1036B0008DF80100200C8DF80200200E8DF803001B
:1036C0009DF800100820FFF7F7FE9DF80110092073
:1036D000FFF7F2FE9DF802100A20FFF7EDFE9DF8BD
:1036E00003100B20FFF7E8FE38BD38B50446002074
:1036F0000090E0B28DF80000200A8DF80100200C47
:103700008DF80200200E8DF803009DF800100F20A8
:10371000FFF7D2FE9DF801100E20FFF7CDFE9DF8B9
:10372000021047E03C00001038000010A401001017
:103730004400001048000010490000104C00001028
:103740005000001051000010540000102000001024
:10375000400000105A5F546573745F4C433D25640C
:103760000D0A00005A5F52656164795F4C433D2544
:10377000640D0A004D6F746F725F53706565643D30
:1037800025640D0A00000000496E697469616C5F70
:103790005A617869735F506C75733D25640D0A003A
:1037A000803801006461745B25645D3D25640A0016
:1037B0006F6B0A000D20FFF77FFE9DF803100C20B1
:1037C000FFF77AFE38BD10B50024FFF76AFD044606
:1037D000184804600168AFF25000FCF721FE204653
:1037E00010BD38B5044600200090E0B28DF800000E
:1037F000200A8DF80100200C8DF80200200E8DF8B3
:1038000003009DF800101720FFF756FE9DF80110E9
:103810001820FFF751FE9DF802101920FFF74CFE0B
:103820009DF803101A20FFF747FEFFF73AFD014904
:10383000086038BD400000103049087009784FF426
:103840007A7251432E4A1160704701462C4A126821
:103850004FF0E0235A6100229A611A46126942F041
:1038600005021A6111E000BF4FF0E022106900F07C
:1038700001021AB100F48032002AF5D0204A126801
:103880004FF0E0235A6100229A610A1EA1F1010360
:1038900099B2E8D14FF0E0231A619A61704701466E
:1038A000164A12784A434FF0E0235A6100229A6187
:1038B00005221A6100BF4FF0E022106900F00102FA
:1038C0001AB100F48032002AF5D000224FF0E02334
:1038D0001A619A61704700EB8002910000BF0A1ED6
:1038E000A1F10101FBD1704744F6206200FB02F117
:1038F00000BF0A1EA1F10101FBD170475800001062
:103900005C0000104D4880684D4908404B49886074
:103910000846C0686FF30B00C8604A48006A4A490D
:103920000840484908620846406B4749C943084374
:10393000444948634148C06820F070403F49C8602E
:103940004048006A20F040403E4908620846406B0B
:1039500040F04040486370473848006820F47F30AA
:10396000364908603748006820F4F070354908602F
:103970000846406940F4F070486170472F4840683D
:1039800020F470302D4948602E48006840F0C07027
:103990002C4908600846406920F0C07048617047B3
:1039A0002648006820F04040244908602548006807
:1039B00040F40040234908600846406920F4004074
:1039C00048611E4840686FF30D001C4948601D485F
:1039D000006840F4FE001B4908600846406920F476
:1039E000FE00486170471548C068184908401349EF
:1039F000C8601448006A40F07F50124908620846C7
:103A0000406B40F07F50486370470C48006820F4DA
:103A100040200A4908600B48006840F400700949DA
:103A20000860704700B5FFF76DFFFFF795FFFFF7E0
:103A3000B7FFFFF7A3FFFFF7E8FF00BD00C002409C
:103A4000F0FCC00F00C00920EC38C0FFFF0F00FAE7
:103A500010B501464448006940F00A00424B186125
:103A60008320424B1873424800688009B0FBF1F292
:103A7000100A18711A700320187307201872062094
:103A8000012383404409A40004F1E024C4F8003178
:103A900000BF0320354B586010BD0A2813D10D21FB
:103AA000324A117000BF3149097D01F0200100291F
:103AB000F9D02E49087000BF2C49097D01F0200182
:103AC0000029F9D008E02949087000BF2749097D7D
:103AD00001F020010029F9D0704700B5034603E04A
:103AE00013F8010BFFF7D9FF18780028F8D100BDB3
:103AF0000FB400B591B013A8109001A8109A1299B4
:103B000001F072FF01A8FFF7E8FF0020109011B04C
:103B10005DF814FB10B5154A9268D0B2401000F061
:103B2000070002281ED1114A11780D290BD100225D
:103B3000104B114C24781A550122104B1A70002298
:103B40000D4B1A700EE00B4A0B4B1B78D1540A4AEE
:103B50001278521C084B1A701A461278402A01DD5E
:103B600000221A7010BD000000C002400000014099
:103B7000540100106C000010AC000010AD000010EB
:103B8000C0B902224FF040235A600022DA6042F2AC
:103B900027324A439A61FF221A6004225A610122A5
:103BA0005A6000BF4FF04022526802F00102002A22
:103BB000F8D149E0012816D10222A74B5A60002211
:103BC000DA6042F227324A439A61FF221A600422E5
:103BD0005A6101225A6000BF9F4A526802F00102F6
:103BE000002AF9D130E0022816D102229B4B5A60FC
:103BF0000022DA6042F227324A439A61FF221A60B9
:103C000004225A6101225A6000BF944A526802F0AD
:103C10000102002AF9D117E0032815D10222904BA6
:103C20005A600022DA6042F227324A439A61FF2248
:103C30001A6004225A6101225A6000BF884A526801
:103C400002F00102002AF9D170474FF040210968C3
:103C5000C8B200F0010141B14FF04021096841F0C4
:103C600001014FF0402211600BE000F00201022937
:103C700007D14FF04021096841F002014FF0402286
:103C8000116078490968491C764A116001214FF09A
:103C900040221160704701206F4908607248006837
:103CA000401C7149086008460068C82801D10020FE
:103CB0000860704769490968C8B200F0010131B174
:103CC0006649096841F00101644A116009E000F0A9
:103CD0000201022905D16149096841F002015F4AE8
:103CE000116062490968491C604A116001215B4A00
:103CF000116070475E480068401C5D490860012003
:103D000057490860704720B901214FF040225160A7
:103D100010E0012803D101214F4A51600AE0022836
:103D200003D101214D4A516004E0032802D1012151
:103D30004B4A5160704720B900214FF0402251603A
:103D400010E0012803D10021434A51600AE0022813
:103D500003D10021414A516004E0032802D100212F
:103D60003F4A51607047014631B94FF040225068D8
:103D700040F00200506016E0012905D1364A506833
:103D800040F0020050600EE0022905D1334A50682D
:103D900040F00200506006E0032904D1304A506828
:103DA00040F002005060704770B505460C4685B97A
:103DB00000202C4908604FF04020846160084FF0DB
:103DC0004021C8610B204861012000F039F8012032
:103DD00070BD012D12D102201F494860002088606B
:103DE000C8600846846103204861FF200860012004
:103DF0004860022000F024F80120E9E7022D0ED1EE
:103E000000201A4908601548846160081349C86198
:103E10000B204861032000F013F80120D8E7032DA0
:103E20000CD10020124908600D48846103200C4920
:103E30004861042000F004F80120C9E70020C7E72A
:103E400000F01F02012191404209920002F1E0229C
:103E5000C2F80011704700000080004000000940D7
:103E600000400940B0000010B4000010B80000107D
:103E7000BC00001001460020302905DB392903DC95
:103E8000A1F13002D0B20EE0612905DB662903DC26
:103E9000A1F15702D0B206E0412904DB462902DC39
:103EA000A1F13702D0B27047002000BF04E000212A
:103EB000FE4A1154411CC8B24028F8DB0021FC4ADC
:103EC0001170704730B503460024002500BF09E09B
:103ED0001878F649095D884201D0681CC5B25B1CA0
:103EE000601CC4B218780028F2D1FFF7DDFF284625
:103EF00030BD70B505460E46002D2FDD022D2DDAA2
:103F0000FFF7D2FF304600F07EFD002404E00120E0
:103F1000FFF7EAFC601CC4B2E5480078012801D034
:103F2000FF2CF4DBFF2C09DBE1480178E1A0FCF772
:103F300077FAE4A0FCF769FA012070BD3046FFF77C
:103F4000C1FF08B90020F8E7D9480178D9A0FCF7EB
:103F500067FAE3A0FCF759FA0220EEE70320ECE74A
:103F60001FB50446E5A30FCB8DE80F0044F03000E9
:103F70008DF8020069462046FFF7BBFF04B010BD74
:103F80001FB50446E1A30FCB8DE80F0044F03000CD
:103F90008DF8020069462046FFF7ABFF04B010BD64
:103FA0001FB50446DDA30FCB8DE80F0044F03000B1
:103FB0008DF8020069462046FFF79BFF04B010BD54
:103FC00070B505460E46002D29DD022D27DAFFF7D4
:103FD0006BFF304600F017FD002404E00120FFF7DE
:103FE00083FC601CC4B2B2480078012801D0FF2CC9
:103FF000F4DBFF2C09DBAE480178AEA0FCF710FA29
:10400000CAA0FCF702FA012070BD00207073304690
:10401000FFF758FF08B90020F6E70220F4E7032075
:10402000F2E77FB505460C46C7A30FCB8DE80F001E
:1040300045F030008DF802002046E11704EB1171C5
:104040000911A4EB0111C44A515C8DF80C102146F2
:10405000E21704EB12721011C21700EB1272121168
:10406000A0EB0212BC4B9A5C8DF80B20E21704EB1C
:1040700012621012C21700EB12721211A0EB0212A0
:104080009A5C8DF80A20E21704EB12521013C21743
:1040900000EB12721211A0EB02129A5C8DF809204B
:1040A00069462846FFF78CFF04B070BD1FB5044673
:1040B000AAA30FCB8DE80F0044F030008DF802006A
:1040C00069462046FFF715FF04B010BD70B50546E0
:1040D0000E46002D19DD022D17DAFFF7E5FE3046FA
:1040E00000F091FC002404E00A20FFF7FDFB601CB7
:1040F000C4B26F480078012801D0FF2CF4DBFF2CFC
:1041000001DB012070BD0020FCE70320FAE72DE968
:10411000FF41064695A30FCB8DE80F0046F0300017
:104120008DF8020069463046FFF7D0FFF0B95F49CD
:10413000C879FFF79FFE07465C49087AFFF79AFEA9
:1041400004465A49487AFFF795FE05465749887A4A
:10415000FFF790FE8046FFF7A7FE380300EB042030
:1041600000EB0510404404B0BDE8F081FF20FAE701
:104170002DE9F14F84B081A30FCB8DE80F00049897
:1041800040F030008DF8020069460498FFF79EFF6A
:1041900000283BD14549C879FFF76CFE8246434968
:1041A000087AFFF767FE04464049487AFFF762FE47
:1041B00005463E49887AFFF75DFE06463B49C87AC8
:1041C000FFF758FE07463949087BFFF753FE804644
:1041D0003649487BFFF74EFE81463449887BFFF71E
:1041E00049FE8346FFF760FE4FEA0A7000EB046069
:1041F00000EB055000EB064000EB073000EB082019
:1042000000EB0910584405B0BDE8F08F4FF6FF7081
:10421000F9E72DE9FF4106465CA30FCB8DE80F00BF
:1042200046F030008DF8020069463046FFF74EFF39
:10423000F0B91E49C879FFF71DFE07461B49087AE9
:10424000FFF718FE04461949487AFFF713FE0546A2
:104250001649887AFFF70EFE8046FFF725FE3803E1
:1042600000EB042000EB0510404404B0BDE8F081F1
:104270004FF6FF70F9E730B58BB005460C461822B3
:1042800046A105A801F0FCFD4AA30FCBCDE903230D
:10429000CDE9010145F030008DF8160045F0300001
:1042A0008DF8060004F00F002B498BE0D6010010BA
:1042B000C000001052785F466C61673D25640D0AAE
:1042C000000000004765745F53656E645F436F6D67
:1042D0006D616E642074696D656F75740D0A000000
:1042E0004765745F53656E645F436F6D6D616E64A7
:1042F0002064617461206572720D0A003A303030BA
:104300003632303131303030300000003A30303029
:104310003632303131303030310000003A30303018
:104320003632303145303030330000004765745F3D
:1043300053656E645F57446174612074696D656F85
:1043400075740D0A000000003A30303036323031DA
:104350003430303030000000240000103A3030306B
:104360003632303145303030360000003A303030AF
:104370003331303230303030310000003A303030BC
:104380003331303041303030320000003A3030309C
:104390003331303044303030310000003A30303189
:1043A0003032303032303030323034303030303003
:1043B000303030003A303030363230314530303005
:1043C00031000000085C8DF82A000846C4F3031190
:1043D000405C8DF829001A48C4F30321405C8DF835
:1043E00028001748C4F30331405C8DF827001448B7
:1043F000C4F30341405C8DF826001148C4F3035117
:10440000405C8DF825000E48C4F30361405C8DF8D4
:1044100024000B4800EB147000788DF8230005A9E8
:104420002846FFF7CDFD40B90A20FFF75DFA01A944
:104430002846FFF7C5FD0BB030BD0120FBE70000AB
:104440002400001070B50546002400BF10E00020D5
:10445000F9490855F9490855F9490855F9490855E0
:10446000F9490855F9490855F9490855601CC4B27D
:10447000022CECDB002409E02846FFF717FE00B908
:1044800006E00A20FFF730FA601CC4B2012CF3DB0F
:1044900000BF012C01DB022070BD002409E028468A
:1044A000FFF75EFD00B906E00A20FFF71DFA601C69
:1044B000C4B2012CF3DB00BF012C01DB0320EBE7CE
:1044C0000020E9E770B50546002409E02846FFF71B
:1044D00067FD00B906E03220FFF706FA601CC4B29F
:1044E000012CF3DB00BF012C01DB012070BD00209B
:1044F000FCE770B506460D4600240AE0E9B23046F6
:10450000FFF78FFD00B906E00A20FFF7EDF9601C08
:10451000C4B2012CF2DB00BF012C01DB012070BD15
:104520000020FCE72DE9F04105460E460024002757
:104530000EE01420FFF7D8F9C64840F82560314650
:104540002846FFF798FE074607B903E0601CC4B28F
:10455000012CEEDB00BF012C02DB3846BDE8F08108
:104560000020FBE710B556E00120FFF7D0FD044620
:104570004FF6FF7084421DD004F0010018B10120F5
:10458000AF49487002E00020AD49487004F00400D3
:1045900018B10120AD49487002E00020AB494870D5
:1045A00004F0080018B10120A749487002E000207B
:1045B000A54948700A20FFF797F90120FFF729FE67
:1045C00004461CB900209F49487002E001209D4923
:1045D0004870A148007801280DD19C48427898483D
:1045E00041789EA0FBF71CFF964842789648417898
:1045F000A4A0FBF715FF9248407801280BD19348FF
:104600004078012807D190484078012803D18D488F
:10461000407800B900E0A7E700BF10BD10B5012049
:10462000A1490870C0E00A20FFF75EF99E480078B3
:10463000FFF76DFD0446002C3BD004F0080018B1D4
:1046400001207D49487002E000207B49487004F059
:10465000100018B101207A49487002E00020784922
:10466000487004F0200018B101207449487002E03D
:1046700000207249487004F4806018B1012071492B
:10468000487002E000206F49487004F4805018B16F
:1046900001206D49487002E000206B49487004F425
:1046A000005018B101206949487002E000206749B4
:1046B00048700A20FFF718F97B480078FFF758FD8B
:1046C0007A49794A127841F8220063480078012833
:1046D0000CD10846744A127850F8221074A0FBF7E7
:1046E0009FFE5748417879A0FBF79AFE6F486E49C4
:1046F000097850F8210000280CDB6C486A490978D9
:1047000050F82100022805DC01207649664A12781B
:10471000885404E000207349634A1278885463483F
:104720006149097850F821000D280CDB5F485E498B
:10473000097850F82100112805DC01206A495A4AFD
:104740001278885404E000216748574A127881544F
:1047500041480078012804D16348417863A0FBF701
:104760005FFE52485049097850F8211065480068AA
:10477000801E81420ED34D484B49097850F82100E4
:1047800060490968884205D801215F48464A127885
:10479000815404E000215C48434A12788154424825
:1047A0000078401C404908703F4800780228FFF616
:1047B0003AAF10BD10B504461420FFF795F8204617
:1047C000FFF7D6FC394941F82400084650F8240088
:1047D000002808DB084650F82400022803DC0120EA
:1047E0004049487002E000203E4948702F4850F888
:1047F00024000D2808DB2D4850F82400112803DC84
:1048000001203949487002E00020374948702748A4
:1048100050F824103D480068801E81427AD3234816
:1048200050F8241039480068801C814272D8012059
:104830003749487071E06DE0C4000010C6000010F8
:10484000CA000010CE000010CC000010C8000010FC
:10485000D6000010E40000101C00001053657276B2
:104860006F4F726967696E4269743D25640D0A2C49
:10487000536572766F52656164794269743D25644F
:104880000D0A0000536572766F4F6E4269743D25C4
:10489000640D0A2C536572766F4572726F724269AD
:1048A000743D25640D0A0000F4000010DC000010C7
:1048B000536572766F315F43757272656E74506FB7
:1048C000696E743D2564200A00000000536572760D
:1048D0006F4F726967696E4269745B315D3D256433
:1048E000200A0000DA000010D20000105365727632
:1048F0006F4F726967696E5F525B315D3D25640A77
:104900000000000038000010D80000104000001027
:10491000D400001000201C4948701C4850F8241096
:104920001B480068801E81420BDB184850F8241099
:1049300017480068801C814203DC0120154948703B
:1049400002E0002013494870104850F82410124823
:104950000068801E81420BD30C4850F824100E488A
:104960000068801C814203D801200C49487002E095
:1049700000200A49487010BD01460A46002A01DDA0
:10498000104670475042FCE7D4000010DC000010D5
:1049900018000010D600001038000010D8000010D9
:1049A00010B50146B6480068B54B1B6823F4700388
:1049B00043F4A0031843B24B18608320B14B187323
:1049C000B14800688009B0FBF1F2100A18711A7042
:1049D0000320187307201872032058600720012352
:1049E00083404409A40004F1E024C4F8003100BF6E
:1049F00010BDA449087000BFA249097D01F0200143
:104A00000029F9D070472DE9F04391B00646002502
:104A1000A8460027A946002422E0307801A90855BD
:104A2000761C9DF804003A281AD1204604EBD07178
:104A30004910A4EB410131B93078FFF71BFA074662
:104A40004FF0000807E03078FFF714FA814609EBD1
:104A5000071000F0FF0805EB0800C5B2601CC4B2E7
:104A600030780028D9D1E843401CC5B22846E91760
:104A700005EB11710911854A515C01AA1155E9171D
:104A800005EB11710911A5EB0111804A525C611C03
:104A9000C9B20C4601AB5A540021601CC0B2044696
:104AA00001AA11547A48406940F40070784948617D
:104AB000002405E001A9085DFFF79BFF601CC4B25C
:104AC00001A8005D0028F5D10D20FFF792FF0A2014
:104AD000FFF78FFF4FF40C70FEF7E1FE6C48406962
:104AE00020F400706A49486111B0BDE8F08370B5E8
:104AF00004460D466648406940F4007064494861C8
:104B000004E02078FFF775FF641C6D1E002DF8D1BE
:104B10006420FEF7E0FE5E48406920F400705C49C6
:104B2000486170BD0FB400B591B013A8109001A8F2
:104B3000109A129900F058FF01A8FFF764FF0020B7
:104B4000109011B05DF814FB2DE9F8430025002703
:104B50000026A8464F480078012868D14E480078C2
:104B60003A2861D1012419E0204604EBD0714910A4
:104B7000A4EB410131B14849085DFFF77BF90646D6
:104B8000002707E04449085DFFF774F9804608EB09
:104B90000610C7B2E819C5B2601CC4B23F4800682D
:104BA000801EA042E0D8E843401CC5B22846E91761
:104BB00005EB117109118DF80010E91705EB117162
:104BC0000911A5EB0111C9B28DF80110334909682B
:104BD000891E314A505CFFF74DF99DF8001088425C
:104BE0001ED12E490968491E2B4A505CFFF742F935
:104BF0009DF80110884213D1012029490870002432
:104C000005E02548005D27490855601CC4B22348CB
:104C10000068801EA042F4D800202249085506E012
:104C200000201E49086002E000201C4908600020A6
:104C30001A49086017490870BDE8F88370B5114833
:104C40008068C5B26D1005F00705022D16D10D481C
:104C500004780D2C12D00A2C05D101200D490870C2
:104C6000FFF772FF0AE00D4800683F2806D20B49A3
:104C70000868411C094A116007490C5470BD0000C6
:104C800000C00240008009405401001024000010C0
:104C900000C00920FC0000103A020010F8000010CB
:104CA000C0000010D60100100A2000BF411E081EDF
:104CB000FCD17047FE48006820F40020FC490860E1
:104CC00008464069C0F3C040704700B5F848006826
:104CD00040F4C010F64908600846006840F48010AF
:104CE00008600846406940F480104861642000BFB5
:104CF000011EA0F10100FBD1FFF7D6FFEC480068D0
:104D000040F40020EA4908600846406940F4002069
:104D10004861642000BF011EA0F10100FBD1FFF734
:104D2000C3FF00BD00B5E248006840F40020E04940
:104D300008600846406940F400204861642000BFD4
:104D4000011EA0F10100FBD1FFF7AEFFD8480068BB
:104D500040F48010D64908600846406940F480104D
:104D60004861642000BF011EA0F10100FBD1FFF7E4
:104D70009BFFCF48006840F40020CD4908600846FA
:104D8000406920F400204861642000BF011EA0F1AA
:104D90000100FBD1FFF788FFC548006840F4801090
:104DA000C34908600846406920F4801048616420C7
:104DB00000BF011EA0F10100FBD1FFF775FF00BD90
:104DC00010B50246082300BF02F0800088B1B84841
:104DD000006840F40020B64908600846406940F485
:104DE00000204861642000BF011EA0F10100FBD13A
:104DF00011E0AF48006840F40020AD490860084663
:104E0000406920F400204861642000BF011EA0F129
:104E10000100FBD100BF5006020EA548006840F417
:104E20008010A34908600846406940F4801048613A
:104E3000642000BF011EA0F10100FBD1FFF734FF89
:104E40009B48006840F48010994908600846406912
:104E500020F480104861642000BF011EA0F1010011
:104E6000FBD1FFF721FF581EC0B2031EACD110BD0D
:104E700000B58F48006840F400208D49086008465E
:104E8000406940F400204861642000BF011EA0F189
:104E90000100FBD1FFF708FF8548006840F480104F
:104EA000834908600846406940F4801048616420E6
:104EB00000BF011EA0F10100FBD1FFF7F5FEFFF7D7
:104EC000F9FE02467A48006840F48010784908608C
:104ED0000846406920F480104861642000BF011E2C
:104EE000A0F10100FBD1FFF7DFFE104600BD00B5C9
:104EF0006F48006840F400206D490860084640692A
:104F000020F400204861642000BF011EA0F10100D0
:104F1000FBD1FFF7C9FE6648006840F48010644981
:104F200008600846406940F480104861642000BF72
:104F3000011EA0F10100FBD1FFF7B6FE5C4800683E
:104F400040F400205A4908600846406940F40020B7
:104F50004861642000BF011EA0F10100FBD1FFF7F2
:104F6000A3FE0F2200BF501E021EFCD100BD10B5D3
:104F700004462046FFF724FFFFF77AFF18B1FFF73A
:104F8000B6FF012010BD0020FCE700B502468AB143
:104F90004748006840F400204549086008464069D9
:104FA00040F400204861642000BF011EA0F1010010
:104FB000FBD111E03E48006840F400203C49086005
:104FC0000846406920F400204861642000BF011EAB
:104FD000A0F10100FBD100BFFFF766FE3448006876
:104FE00040F48010324908600846406940F480105F
:104FF0004861642000BF011EA0F10100FBD1FFF752
:1050000053FE2B48006840F4801029490860084688
:10501000406920F480104861642000BF011EA0F1A7
:105020000100FBD1FFF740FE00BD10B5082320486A
:10503000006840F400201E4908600846406940F4BA
:1050400000204861642000BF011EA0F10100FBD1D7
:1050500000BF1748006840F48010154908600846F2
:10506000406940F480104861642000BF011EA0F137
:105070000100FBD1FFF718FE5006020EFFF71AFEE3
:1050800008B1501CC2B20A48006840F480100849B8
:1050900008600846406920F480104861642000BF21
:1050A000011EA0F10100FBD1FFF7FEFD581E01E03B
:1050B00000C00920C0B2031ECBD1104610BD0000B5
:1050C0000A2000BF411E081EFCD17047FE48006840
:1050D00020F40010FC49086008464069C0F34050C5
:1050E000704700B5F848006840F4C000F649086011
:1050F0000846006840F4800008600846406940F4B3
:1051000080004861642000BF011EA0F10100FBD1B6
:10511000FFF7D6FFEC48006840F40010EA49086049
:105120000846406940F400104861642000BF011E39
:10513000A0F10100FBD1FFF7C3FF00BD00B5E248BD
:10514000006840F40010E04908600846406940F4F7
:1051500000104861642000BF011EA0F10100FBD1D6
:10516000FFF7AEFFD848006840F48000D6490860D9
:105170000846406940F480004861642000BF011E79
:10518000A0F10100FBD1FFF79BFFCF48006840F47E
:105190000010CD4908600846406920F400104861BD
:1051A000642000BF011EA0F10100FBD1FFF788FFC2
:1051B000C548006840F48000C3490860084640695B
:1051C00020F480004861642000BF011EA0F10100AE
:1051D000FBD1FFF775FF00BD10B50246082300BFE5
:1051E00002F0800088B1B848006840F40010B64969
:1051F00008600846406940F400104861642000BF20
:10520000011EA0F10100FBD111E0AF48006840F49D
:105210000010AD4908600846406920F4001048615C
:10522000642000BF011EA0F10100FBD100BF5006A9
:10523000020EA548006840F48000A34908600846B3
:10524000406940F480004861642000BF011EA0F165
:105250000100FBD1FFF734FF9B48006840F4800059
:10526000994908600846406920F48000486164203C
:1052700000BF011EA0F10100FBD1FFF721FF581E66
:10528000C0B2031EACD110BD00B58F48006840F419
:1052900000108D4908600846406940F400104861DC
:1052A000642000BF011EA0F10100FBD1FFF708FF41
:1052B0008548006840F480008349086008464069DA
:1052C00040F480004861642000BF011EA0F101008D
:1052D000FBD1FFF7F5FEFFF7F9FE02467A480068BA
:1052E00040F48000784908600846406920F4800056
:1052F0004861642000BF011EA0F10100FBD1FFF74F
:10530000DFFE104600BD00B56F48006840F4001095
:105310006D4908600846406920F400104861642027
:1053200000BF011EA0F10100FBD1FFF7C9FE6648D6
:10533000006840F48000644908600846406940F411
:1053400080004861642000BF011EA0F10100FBD174
:10535000FFF7B6FE5C48006840F400105A49086048
:105360000846406940F400104861642000BF011EF7
:10537000A0F10100FBD1FFF7A3FE0F2200BF501EDA
:10538000021EFCD100BD10B504462046FFF724FFE5
:10539000FFF77AFF18B1FFF7B6FF012010BD00201C
:1053A000FCE700B502468AB14748006840F40010A7
:1053B000454908600846406940F40010486164208F
:1053C00000BF011EA0F10100FBD111E03E480068C2
:1053D00040F400103C4908600846406920F4001081
:1053E0004861642000BF011EA0F10100FBD100BF95
:1053F000FFF766FE3448006840F4800032490860D8
:105400000846406940F480004861642000BF011EE6
:10541000A0F10100FBD1FFF753FE2B48006840F4D8
:105420008000294908600846406920F480004861EE
:10543000642000BF011EA0F10100FBD1FFF740FE78
:1054400000BD10B508232048006840F400101E4934
:1054500008600846406940F400104861642000BFBD
:10546000011EA0F10100FBD100BF1748006840F405
:105470008000154908600846406940F48000486192
:10548000642000BF011EA0F10100FBD1FFF718FE50
:105490005006020EFFF71AFE08B1501CC2B20A48AD
:1054A000006840F48000084908600846406920F41C
:1054B00080004861642000BF011EA0F10100FBD103
:1054C000FFF7FEFD581E01E000C00920C0B2031E18
:1054D000CBD1104610BD000010B5FFF723FC4020D3
:1054E000FFF745FD0620FFF742FD0020FFF73FFDD7
:1054F000FFF7FDFCFFF716FC4020FFF738FD072003
:10550000FFF735FD0020FFF732FDFFF7F0FCFFF756
:1055100009FC4020FFF72BFD0220FFF728FD0020AB
:10552000FFF725FDFFF7E3FCFFF7FCFB4020FFF74B
:105530001EFD0320FFF71BFD0020FFF718FDFFF7FE
:10554000D6FCFFF7FBFD4220FFF71DFF0620FFF70B
:105550001AFFFF20FFF717FFFFF7D5FEFFF7EEFD5D
:105560004220FFF710FF0720FFF70DFFFF20FFF796
:105570000AFFFFF7C8FE10BD70B505460C4616467B
:10558000FFF7D0FB4020FFF7F2FCCDB90220FFF778
:10559000EEFC012E07D10120A040284909780843DC
:1055A0002649087006E00120A0402449097881437B
:1055B0002248017021480078FFF7D9FCFFF797FCDB
:1055C000012D19D10320FFF7D2FC012E07D10120B4
:1055D000A0401B49097808431949087006E00120DA
:1055E000A040174909788143154801701448007894
:1055F000FFF7BDFCFFF77BFC70BD70B504460D46A0
:105600000026FFF79BFD4220FFF7BDFE14B90020E6
:10561000FFF7B9FE012C02D10120FFF7B4FEFFF71E
:105620008DFD4320FFF7AFFEFFF70BFF0646FFF7A8
:105630006AFE46FA05F000F0010070BDFE000010A1
:10564000FF00001010B501464448406A40F0706009
:10565000424B58628320424B1873424800688009CD
:10566000B0FBF1F2100A18711A70032018730720AA
:1056700018720820012383404409A40004F1E024A7
:10568000C4F8003100BF0320354B586010BD0A2814
:1056900013D10D21324A117000BF3149097D01F04B
:1056A00020010029F9D02E49087000BF2C49097D3E
:1056B00001F020010029F9D008E02949087000BF55
:1056C0002749097D01F020010029F9D0704700B574
:1056D000034603E013F8010BFFF7D9FF1878002801
:1056E000F8D100BD0FB400B591B013A8109001A877
:1056F000109A129900F078F901A8FFF7E8FF00204E
:10570000109011B05DF814FB10B5154A9268D0B234
:10571000401000F0070002281ED1114A11780D290F
:105720000BD10022104B114C24781A550122104B3A
:105730001A7000220D4B1A700EE00B4A0B4B1B78AF
:10574000D1540A4A1278521C084B1A701A46127821
:10575000402A01DD00221A7010BD000000C0024086
:1057600000C0094054010010100100105001001049
:105770005101001095480068C0F30160032860D112
:1057800092488430006800F0030030B1012820D036
:10579000022839D0032853D100E000BF8B480068AD
:1057A000C0F30E00401C40008949484387498839AE
:1057B000D1F88810C1F30741491CB0FBF1F18348CF
:1057C0007C300068C0B2401CB1FBF0F08149086039
:1057D00036E07E480068C0F30E00401C40007E4961
:1057E00048437A498839D1F88810C1F30741491CE8
:1057F000B0FBF1F175487C300068C0B2401CB1FBD1
:10580000F0F0744908601BE070480068C0F30E00B7
:10581000401C40004FF4FA4148436C498839D1F8A4
:105820008810C1F30741491CB0FBF1F167487C3097
:105830000068C0B2401CB1FBF0F06649086000BFD0
:1058400030E062488430006800F0030030B1012885
:1058500010D0022819D0032823D100E000BF5B48F4
:105860007C300068C0B2401C5949B1FBF0F0594986
:10587000086016E055487C300068C0B2401C5649AC
:10588000B1FBF0F0534908600BE050487C300068F1
:10589000C0B2401C4FF4FA41B1FBF0F04D49086032
:1058A00000BF00BF704720204C49086000BF4B4834
:1058B000006800F040000028F9D0032043497C3103
:1058C0000860012041498839C1F80C0144483F492A
:1058D000091F0860AA203D49091D0860552008607D
:1058E00001203A4908390860AA203849091D086092
:1058F000552036498839C1F88C0000BF334800680C
:1059000000F080600028F9D0032030490839086091
:10591000AA202E498839C1F88C0055202B49091D31
:10592000086000BF2948006800F040700028F9D0E6
:10593000232026491C310860AA2024498839C1F84F
:10594000AC00552021492431086001201F4918313D
:105950000860AA201D492431086055201B49883958
:10596000C1F8AC0000BF19482030006800F4806026
:105970000028F8D00320154918310860AA201349DF
:105980008839C1F8AC00552010492431086000BFA7
:105990000E482030006800F440700028F8D0002045
:1059A0000E490831086009498839C1F8AC010D4831
:1059B00006493C310860002008492831086043F25C
:1059C0003A000249883908607047000088C00F40DB
:1059D00000093D0054010010001BB700A0C10F409A
:1059E00063000500DE87E8471CB50C46064B7B4488
:1059F00069460090204600F03CFC044600206946C1
:105A000000F04AFC20461CBDA70800000FB4044962
:105A100010B503AA029800F045FC10BC5DF814FB19
:105A2000D00200102DE9F0410646002410687529C7
:105A3000314616A510D000F06EFB002802DA404275
:105A400013A507E031688A0701D512A502E04907CE
:105A500004D511A5012401E000F066FB00210A2213
:105A600006F1240709E0B0FBF2FCB0FBF2F302FB05
:105A70001C00303078541846491C0028F3D12346C6
:105A80002A463046BDE8F04100F080BB000000002F
:105A90002D0000002B000000200000002DE9F05F29
:105AA000894604464FF0000ADFF874B1FB44C0F8A1
:105AB00020A02046E1688847002874D0252806D019
:105AC000D4E901219047206A401C2062F1E70026BA
:105AD0005F462046E16888472028054607DB312DD0
